:020000040000FA
:0400000031EF31F0BB
:105FB20012009EA6DFEF2FF0E1EF2FF0DAEF2FF0C5
:105FC2009E961200010EE2EC31F0000E026E030EFC
:105FD200016E98EC31F01200C59AC588C5B8F4EF8D
:105FE2002FF0F6EF2FF0EFEF2FF01200C58AC588E1
:105FF200C5B8FEEF2FF000EF30F0F9EF2FF01200EE
:10600200C584C5B407EF30F009EF30F002EF30F08D
:10601200C750120093809382500EC76E280EC66E30
:10602200000EC56E130EC86E9D869E961200016EFE
:1060320001C0C9FFDAEC2FF0C5AC22EF30F024EF3B
:1060420030F027EF30F0010E28EF30F0020E120090
:106053003738392F3435362A3132332D20303D2B22
:10606300E803AC0DF401D0070200030001000100B6
:10607300534D5457744673026EC582C5B244EF3014
:10608300F046EF30F03FEF30F09E96C7B64CEF305E
:10609300F04EEF30F050EF30F053EF30F002501885
:1060A300EC30F01200026EC580C5B05BEF30F05DDE
:1060B300EF30F056EF30F09E96C7B663EF30F065E1
:1060C300EF30F067EF30F06AEF30F0025018EC3049
:1060D300F01200000E946E000E026E140E016E9804
:1060E300EC31F0020EE2EC31F0280EE2EC31F0017B
:1060F3000EE2EC31F00C0EE2EC31F0060EE2EC3184
:10610300F0120001C003F002C004F08BEF30F00185
:106113004A022A01C0D9FF02C0DAFFDF50D8A49592
:10612300EF30F097EF30F089EF30F00350015C016E
:106133006E04500258026E1200BF0E036EFF0E046F
:106143006E01C005F002C006F00350052604500698
:106153002206500AE11A0E055CD8A0B3EF30F0B660
:10616300EF30F0010EB7EF30F0000E016E026A124D
:10617300009F0E036EFF0E046E01C005F002C00601
:10618300F0035005260450062206500AE11A0E05B4
:106193005CD8A0CFEF30F0D2EF30F0010ED3EF3068
:1061A300F0000E016E026A1200016EC586C7A0DD03
:1061B300EF30F0DFEF30F0D8EF30F0C9CF02F0016D
:1061C30050D8A4E7EF30F0E9EF30F0EDEF30F0ED29
:1061D300EC2FF0EFEF30F0F7EC2FF0DAEC2FF002CA
:1061E3005012009F0E036EFF0E046E200E01100569
:1061F3006E000E0210066E0350052604500622069A
:10620300500AE11A0E055CD8A00AEF31F00DEF3108
:10621300F0010E0EEF31F0000E016E026A1200144F
:10622300BE1EEF31F0145006E11304D8B01CEF3159
:10623300F01EEF31F02CEF31F013C015F014C0163F
:10624300F0151E161E154A162A15C013F016C01493
:10625300F030EF31F013C013F014C014F0120053F8
:106263000EF66E600EF76E000EF86E01EE32F01051
:10627300EE27F00900F5CFEEFFE550E150FAE1011A
:10628300EE00F0320EEE6AE806FDE100EEF0F00EED
:106293000EEE6AE806FDE1000EF86E00017EEF3CAB
:1062A300F0000E106E000E0F6E63EF31F00EC001A2
:1062B300F0026A0CC003F00DC004F0F5EC33F00FEC
:1062C3004A102A0F500A24D96E10500B20DA6EDFC1
:1062D300500E6E0E50D8A471EF31F073EF31F058B9
:1062E300EF31F01200000E0A6E000E096ED890090D
:1062F30034D96E0A34DA6E000ED926010EDA22DEA4
:10630300CF07F0DDCF08F013EC33F0094A0A2A0A6D
:10631300BE95EF31F00A5009E1030E095CD8A09550
:10632300EF31F097EF31F078EF31F01200000E0407
:106333006E000E036EB1EF31F0000E066E000E0517
:106343006E054A062A065009E1A50E055CD8A0ADE4
:10635300EF31F0AFEF31F0A2EF31F0034A042A013D
:1063630050035C02500458D8A0BAEF31F0BCEF31AF
:10637300F09EEF31F01200046ED00E54EC30F004B6
:106383005018EC30F0D10E3DEC30F0000ED6EC306E
:10639300F0036E03500001F86FF96B000ED6EC307A
:1063A300F0036E03500001F66FF76B010ED6EC306D
:1063B300F0036E03500001F46FF56B01EC30F01243
:1063C30000086E08C007F0F00E07168B500F0B077E
:1063D300108B6E8B908B8200F08B92000E026E01FD
:1063E3000E016E98EC31F008C007F0073AF00E0783
:1063F300168B500F0B07108B6E8B8200F08B920065
:106403000E026E030E016E98EC31F01200086E0856
:10641300C007F0F00E07168B500F0B07108B6E8B17
:10642300808B8200F08B92000E026E010E016E983B
:10643300EC31F008C007F0073AF00E07168B500F47
:106443000B07108B6E8B8200F08B92000E026E0393
:106453000E016E98EC31F012006A0E00016E6F00AF
:106463000E6F6F66C070F067C071F0000E736F003F
:106473000E726F000E756F000E746F700E606F00FA
:106483000E616F68C062F069C063F06E0E646F00E6
:106493000E656FE2EC32F0000172516625D96E731E
:1064A300516721DA6E000EDF6E1200046ED00E54B7
:1064B300EC30F0045018EC30F0D10E3DEC30F0002D
:1064C3000ED6EC30F0036E03500101106F116B0018
:1064D3000ED6EC30F0036E035001010E6F0F6B000C
:1064E3000ED6EC30F0036E035001010C6F0D6B01FF
:1064F3000ED6EC30F0036E035001010A6F0B6B01F3
:10650300EC30F012009AEF32F009C0F6FF0AC0F740
:10651300FFF86A070EF76403D00800F55005D0F6BC
:10652300CFE9FFF7CFEAFFEF5008EC32F0094A0A50
:106533002A09C0F6FF0AC0F7FFF86A070EF76403DB
:10654300D00800F55005D0F6CFE9FFF7CFEAFFEF0B
:10655300500009D8A4B0EF32F0B2EF32F086EF3238
:10656300F012009F0E096EFF0E0A6E07C00BF008B3
:10657300C00CF009500B260A500C220C500AE11AE9
:106583000E0B5CD8A0C8EF32F0CBEF32F0010ECC8B
:10659300EF32F0000E0D6E0E6A0D500E10D8B4D50A
:1065A300EF32F0D7EF32F0DDEF32F05F0E07140772
:1065B3006E086AE1EF32F007C007F008C008F01276
:1065C3000062C05EF063C05FF0000E0101076F0060
:1065D3000E066F00EF33F060C043F061C044F05E1D
:1065E3000E456E000E466E64C047F065C048F0E489
:1065F300EC36F0435001010627445007235EC0F6F2
:10660300FF5FC0F7FF0800F5500009D8A40CEF3373
:10661300F00EEF33F0EDEF32F006C160F007C16129
:10662300F01200899407040810D8A41BEF33F01D5F
:10663300EF33F01FEF33F089928990020E071808A9
:1066430010D8A427EF33F029EF33F02BEF33F08981
:10665300928980030E07180810D8A433EF33F0355E
:10666300EF33F037EF33F089828990040E0718086F
:1066730010D8A43FEF33F041EF33F043EF33F08909
:10668300828980030E026EE80E016E98EC31F08968
:106693008412000E6E0E04D8A452EF33F054EF337D
:1066A300F05BEF33F00B500F0B8009E2EC31F08B12
:1066B300EF33F0020E0E18D8A462EF33F064EF3319
:1066C300F06BEF33F00B500F0BC009E2EC31F08BA2
:1066D300EF33F0030E0E18D8A472EF33F074EF33D8
:1066E300F07BEF33F00B500F0B9409E2EC31F08B9E
:1066F300EF33F0040E0E18D8A482EF33F084EF3397
:10670300F08BEF33F00B500F0BD409E2EC31F08B2D
:10671300EF33F00CC009F00DC00AF084EC32F01234
:10672300000001F2A198EF33F09AEF33F0A4EF33B6
:10673300F013C00AF014C00BF011C00CF012C00D1E
:10674300F052EC31F016BEA9EF33F0ABEF33F0B1FA
:10675300EF33F015C01AF016C01BF0B5EF33F0009D
:106763000E1B6E000E1A6E000E196E000E186EC709
:10677300EF33F0000E026E200E016E11C003F01213
:10678300C004F0F5EC33F0184A192A1A50185C19B2
:1067930050800A176E1B50800A1758D8A0D4EF33C5
:1067A300F0D6EF33F0BBEF33F00001F2B1DCEF339F
:1067B300F0DEEF33F0E8EF33F013C00AF014C00B50
:1067C300F011C00CF012C00DF052EC31F013C00107
:1067D300F014C002F083EC30F01A500124116E1B48
:1067E300500220126E120003500410D8B4FCEF3391
:1067F300F0FEEF33F007EF34F003500410D8A40594
:10680300EF34F007EF34F00CEF34F00150D9EC2FF4
:10681300F059EF34F020EE04F00350D9260450DA97
:1068230022DE50DE10D8B419EF34F01BEF34F0360B
:10683300EF34F020EE04F00350D9260450DA22108E
:10684300EE02F00350E1260450E222DE50E65CE65D
:1068530050800A096EDE50800A0958D8B034EF34EC
:10686300F036EF34F059EF34F020EE02F00350D954
:10687300260450DA22DECF05F0DDCF06F003C0D9BF
:10688300FF04C0DAFFDECF07F0DDCF08F0055007C5
:1068930024D96E06500820DA6E01C0DFFF20EE0215
:1068A300F00350D9260450DA22DE2A000EDD22122C
:1068B30000000E126E08BE63EF34F061EF34F07522
:1068C300EF34F0081E071E061E051E041E031E02DB
:1068D3001E016C000E022203220422052206220757
:1068E300220822010E126E10BE7CEF34F07AEF34D0
:1068F300F08CEF34F0101E0F1E0E1E0D1E0C1E0B1F
:106903001E0A1E096C000E0A220B220C220D220EF7
:10691300220F22102209500A100B100C100D100E1A
:10692300100F101010D8B499EF34F09BEF34F0E34C
:10693300EF34F0010E116EA9EF34F0D89009360A46
:10694300360B360C360D360E360F361036112A102E
:10695300AEAEEF34F0B0EF34F09FEF34F0095001F6
:106963005C0A5002580B5003580C5004580D500544
:10697300580E5006580F50075810500858D8A0C545
:10698300EF34F0C7EF34F0D7EF34F00950015E0A6B
:1069930050025A0B50035A0C50045A0D50055A0E0C
:1069A30050065A0F50075A1050085AD89010320FF9
:1069B300320E320D320C320B320A320932112EB042
:1069C300EF34F01250D8B4E9EF34F0EBEF34F0FBCE
:1069D300EF34F0081E071E061E051E041E031E02CA
:1069E3001E016C000E022203220422052206220746
:1069F30022082201C001F002C002F003C003F00428
:106A0300C004F005C005F006C006F007C007F00893
:106A1300C008F01200000E126E10BE15EF35F01311
:106A2300EF35F027EF35F0101E0F1E0E1E0D1E0C56
:106A33001E0B1E0A1E096C000E0A220B220C220DCD
:106A4300220E220F221022010E126E08BE2EEF35E7
:106A5300F02CEF35F040EF35F0081E071E061E053B
:106A63001E041E031E021E016C000E0222032204DA
:106A7300220522062207220822010E121A20EE13F3
:106A8300F0070EDE6AE806FDE209500A100B100C4F
:106A9300100D100E100F101010D8B453EF35F05521
:106AA300EF35F0A7EF35F0010E116E63EF35F0D837
:106AB3009009360A360B360C360D360E360F361065
:106AC30036112A10AE68EF35F06AEF35F059EF351D
:106AD300F0D890133614361536163617361836197D
:106AE300361A360950015C0A5002580B5003580CF1
:106AF3005004580D5005580E5006580F50075810A3
:106B0300500858D8A088EF35F08AEF35F09BEF3561
:106B1300F00950015E0A50025A0B50035A0C5004FC
:106B23005A0D50055A0E50065A0F50075A10500866
:106B33005A1380D89010320F320E320D320C320BB2
:106B4300320A320932112E6AEF35F01250D8B4AD41
:106B5300EF35F0AFEF35F0BFEF35F01A1E191E1801
:106B63001E171E161E151E141E136C000E1422155E
:106B73002216221722182219221A2213C001F014F6
:106B8300C002F015C003F016C004F017C005F018DA
:106B9300C006F019C007F01AC008F01200F00E95F5
:106BA3006EF00E8C6E8350F00B0001FD6FF00EFD46
:106BB30019D8A4DFEF35F0E1EF35F0D4EF35F083EA
:106BC30050F00BFD6FF00EFD19D8A4EBEF35F0ED8F
:106BD300EF35F0D4EF35F0000E026E320E016E98F1
:106BE300EC31F0F00E8C6E8350F00B0001FD6FF072
:106BF3000EFD19D8B400EF36F002EF36F0F5EF359D
:106C0300F08350F00BFD6FF00EFD19D8B40CEF3686
:106C1300F00EEF36F0F5EF35F0000E026E140E01B4
:106C23006E98EC31F08350F00B0001FD6FFE0E8C7B
:106C33006E8350F00BFD6FFDC0FBF0F00EFD19D815
:106C4300B426EF36F028EF36F03AEF36F0000EFCBC
:106C53006F2FEF36F08350F00BFB6FF00EFB19D85C
:106C6300A436EF36F038EF36F02CEF36F09EEF36E1
:106C7300F0FD0E8C6E8350F00BFD6FFDC0FBF0F04A
:106C83000EFD19D8B448EF36F04AEF36F05CEF3614
:106C9300F0010EFC6F51EF36F08350F00BFB6FF0F9
:106CA3000EFB19D8A458EF36F05AEF36F04EEF36F4
:106CB300F09EEF36F0FB0E8C6E8350F00BFD6FFDF4
:106CC300C0FBF0F00EFD19D8B46AEF36F06CEF3666
:106CD300F07EEF36F0020EFC6F73EF36F08350F068
:106CE3000BFB6FF00EFB19D8A47AEF36F07CEF366E
:106CF300F070EF36F09EEF36F0F70E8C6E8350F0A7
:106D03000BFD6FFDC0FBF0F00EFD19D8B48CEF3610
:106D1300F08EEF36F018EF36F0030EFC6F95EF367A
:106D2300F08350F00BFB6FF00EFB19D8A49CEF36E9
:106D3300F09EEF36F092EF36F0E00EFD19D8A4A5E1
:106D4300EF36F0A7EF36F0B2EF36F0FC51040D3218
:106D53000EF324D96E010EF420DA6EDF50E3EF3622
:106D6300F0D00EFD19D8A4B9EF36F0BBEF36F0C65C
:106D7300EF36F0FC51040D330EF324D96E010EF4FB
:106D830020DA6EDF50E3EF36F0B00EFD19D8A4CD54
:106D9300EF36F0CFEF36F0DAEF36F0FC51040D3476
:106DA3000EF324D96E010EF420DA6EDF50E3EF36D2
:106DB300F0FC51040D350EF324D96E010EF420DAE4
:106DC3006EDF50120045C0D9FF46C0DAFFDECFF6B2
:106DD300FFDDCFF7FF0800F550250AD8A4F4EF36FE
:106DE300F0F6EF36F015EF38F045C0D9FF46C0DABC
:106DF300FFDE2A000EDD22000E0101096F000E08DE
:106E03006F08C1F2F009C1F3F00001F069F16945BF
:106E1300C0D9FF46C0DAFFDECFF6FFDDCFF7FF08AC
:106E230000F550640AD8B419EF37F01BEF37F02D93
:106E3300EF37F045C0D9FF46C0DAFFDECFF6FFDDFE
:106E4300CFF7FF0800F550690AD8A42BEF37F02DD0
:106E5300EF37F06DEF37F045C0D9FF46C0DAFFDEFC
:106E63002A000EDD2247C0D9FF48C0DAFFDFCF4931
:106E7300F0020EDE26DFCF4AF0000EDD2249C0D934
:106E8300FF4AC0DAFFDECF4DF0DDCF4EF0000E4EED
:106E9300BEFF0E4F6E506E516E526E536E546E4364
:106EA300C01CF044C01DF04DC01EF04EC01FF04F7B
:106EB300C020F050C021F051C022F052C023F05343
:106EC300C024F054C025F00CEC3BF01CC043F01D73
:106ED300C044F030EF38F045C0D9FF46C0DAFFDEDA
:106EE300CFF6FFDDCFF7FF0800F550780AD8B47D61
:106EF300EF37F07FEF37F091EF37F045C0D9FF461A
:106F0300C0DAFFDECFF6FFDDCFF7FF0800F55058FC
:106F13000AD8A48FEF37F091EF37F0DFEF37F04562
:106F2300C0D9FF46C0DAFFDECFF6FFDDCFF7FF089B
:106F330000F5CF5DF045C0D9FF46C0DAFFDE2A0079
:106F43000EDD2247C0D9FF48C0DAFFDFCF49F00288
:106F53000EDE26DFCF4AF0000EDD2249C0D9FF4AFC
:106F6300C0DAFFDECF4BF0DDCF4CF04BC055F04C19
:106F7300C056F0576A586A596A5A6A5B6A5C6A4330
:106F8300C01CF044C01DF055C01EF056C01FF05782
:106F9300C020F058C021F059C022F05AC023F05B42
:106FA300C024F05CC025F05DC026F031EC38F01C45
:106FB300C043F01DC044F030EF38F045C0D9FF4660
:106FC300C0DAFFDECFF6FFDDCFF7FF0800F550256F
:106FD3000AD8A4EFEF37F0F1EF37F008EF38F045B8
:106FE300C0D9FF46C0DAFFDE2A000EDD22000E0202
:106FF3006E250E016E43C003F044C004F0F5EC337C
:10700300F0000E446E010E436E30EF38F045C0D9E8
:10701300FF46C0DAFFDE2A000EDD22000E446E00BA
:107023000E436E30EF38F045C0D9FF46C0DAFFDEBD
:10703300CFF6FFDDCFF7FF0800F550016E026A437C
:10704300C003F044C004F0F5EC33F045C0D9FF466B
:10705300C0DAFFDE2A000EDD2202EF38F012000054
:1070630001F1BF37EF38F039EF38F03AEF38F0F28B
:1070730093F1BF47EF38F0F15106E1F005D8B04581
:10708300EF38F047EF38F04DEF38F0000E346E0173
:107093000E336E51EF38F0F0C033F0F1C034F00826
:1070A300C135F009C136F0F2A95AEF38F05CEF3878
:1070B300F060EF38F0FE0E3526FF0E36221EC03785
:1070C300F01FC038F020C039F021C03AF022C03B95
:1070D300F023C03CF024C03DF025C03EF0000E403C
:1070E3006E1F0E3F6E000E0101316F2CEF39F03F22
:1070F30006D8A040060F0E3714416E426A42BE8C7A
:10710300EF38F0425009E10A0E415CD8A08CEF3809
:10711300F08EEF38F096EF38F0570E4124416E00B1
:107123000E4220426E9CEF38F0300E4124416E0037
:107133000E4220426EBF0E276EFF0E286E26502988
:107143006E2A6A2750292628502A222A500AE11A31
:107153000E295CD8A0B0EF38F0B3EF38F0010EB4CD
:10716300EF38F0000E2F6E306A2F503010D8B4BDB8
:10717300EF38F0BFEF38F0EFEF38F09F0E276EFFD8
:107183000E286E200E4110296E000E42102A6E2723
:1071930050292628502A222A500AE11A0E295CD89F
:1071A300A0D6EF38F0D9EF38F0010EDAEF38F0005F
:1071B3000E316E326A31503210D8B4E3EF38F0E555
:1071C300EF38F0EFEF38F041C007F042C008F0B3FA
:1071D300EC32F007C041F008C042F0120E3F24D950
:1071E3006E010E4020DA6E41C0DFFF3306D8A034B3
:1071F300063506D8A0360637C027F038C028F03940
:10720300C029F03AC02AF03BC02BF03CC02CF03D23
:10721300C02DF03EC02EF0050E19EF39F0D8902E98
:10722300322D322C322B322A32293228322732E8BD
:107233002E10EF39F027C037F028C038F029C039B5
:10724300F02AC03AF02BC03BF02CC03CF02DC03DDF
:10725300F02EC03EF040BE38EF39F0405009E10255
:107263000E3F5CD8A038EF39F03AEF39F06BEF39C5
:10727300F03750381039103A103B103C103D103E97
:1072830010D8A447EF39F049EF39F079EF38F034EB
:10729300BE56EF39F0345006E13304D8B054EF3919
:1072A300F056EF39F079EF38F036BE61EF39F0364A
:1072B3005008E13504D8A061EF39F063EF39F06B82
:1072C300EF39F00001F2B369EF39F06BEF39F07980
:1072D300EF38F00001F2A971EF39F073EF39F0895B
:1072E300EF39F03F06D8A04006120E3F24D96E01B5
:1072F3000E4020DA6E26C0DFFF3F06D8A0400612FC
:107303000E3F24D96E010E4020DA6E300EDF6E1C64
:10731300C011F01DC012F0120E3F24136E010E4077
:1073230020146E35C015F036C016F092EC33F01110
:10733300C01CF012C01DF01200050E0001BC6F212D
:10734300EE52F010EE78F0060EDBCFE3FFE806FC1A
:10735300E2720ED36E000EBDEC31F00001F4ADB558
:10736300EF39F0B7EF39F01AEF3AF0F4ABBCEF397D
:10737300F0BEEF39F0C9EF39F00E0E0B6EF40E0CC0
:107383006E7F0E0D6E010E4BEC33F0D2EF39F00E23
:107393000E0B6EF10E0C6E7F0E0D6E010E4BEC3369
:1073A300F01F0E0001F415F46FF56B9D0E666F0070
:1073B3000E676FD10E686F7F0E696FF8C06AF0F9C0
:1073C300C06BF02EEC32F0A70E0001666F000E6763
:1073D3006FB20E686F7F0E696FF6C06AF0F7C06B0D
:1073E300F02EEC32F0B10E0001666F000E676FAD48
:1073F3000E686F7F0E696FF4C06AF0F5C06BF02EF4
:10740300EC32F0000E0B6EB10E0C6E000E0D6E0022
:107413000E4BEC33F0A70E096E000E0A6E84EC32AD
:10742300F09D0E096E000E0A6E84EC32F059EF3AAD
:10743300F03F0EF415F46FF56B9D0E666F000E674B
:107443006FD10E686F7F0E696FF8C06AF0F9C06B79
:10745300F02EEC32F0A70E0001666F000E676FFA94
:107463000E686F7F0E696FF6C06AF0F7C06BF02E7F
:10747300EC32F0B10E0001666F000E676FB60E6856
:107483006F7F0E696FF4C06AF0F5C06BF02EEC32BB
:10749300F0000E0B6EB10E0C6E000E0D6E000E4B57
:1074A300EC33F0A70E096E000E0A6E84EC32F00383
:1074B3000E57EC32F001EC30F07F0E0001666F00E6
:1074C3000E676FA30E686F7F0E696F0EC16AF00FB0
:1074D300C16BF02EEC32F0890E0001666F000E676F
:1074E3006FA90E686F7F0E696F0CC16AF00DC16BD7
:1074F300F02EEC32F0930E0001666F000E676FD131
:107503000E686F7F0E696F0AC16AF00BC16BF02EB4
:10751300EC32F0000E0B6E7F0E0C6E000E0D6E0241
:107523000E4BEC33F0890E096E000E0A6E84EC32BA
:10753300F0930E096E000E0A6E84EC32F0DAEF3A25
:10754300F0E50E096E7F0E0A6E84EC32F00BEF3B12
:10755300F0E10E096E7F0E0A6E84EC32F00BEF3B06
:10756300F0D90E096E7F0E0A6E84EC32F00BEF3BFE
:10757300F0D50E096E7F0E0A6E84EC32F00BEF3BF2
:10758300F0ED0E096E7F0E0A6E84EC32F00BEF3BCA
:10759300F0DD0E096E7F0E0A6E84EC32F00BEF3BCA
:1075A300F0E90E096E7F0E0A6E84EC32F00BEF3BAE
:1075B300F0780E01011025D96E000E1121DA6EDF6D
:1075C300500001766F776B7751000AD8B4ECEF3A2D
:1075D300F00BEF3BF07651460AD8B4CAEF3AF00B02
:1075E3000AD8B4AAEF3AF01E0AD8B4A2EF3AF007C9
:1075F3000AD8B4B2EF3AF0030AD8B4BAEF3AF02497
:107603000AD8B4D2EF3AF0070AD8B4C2EF3AF00B73
:10761300EF3BF012001EC036F01FC037F020C03819
:10762300F021C039F022C03AF023C03BF024C03C23
:10763300F025C03DF03DBE21EF3BF024EF3BF001D0
:107643000E25EF3BF0000E346E356A34503510D8FA
:10765300B42EEF3BF030EF3BF040EF3BF03D1E3CF0
:107663001E3B1E3A1E391E381E371E366C000E375F
:1076730022382239223A223B223C223D220001F1C8
:10768300BF46EF3BF048EF3BF049EF3BF0F293F19D
:10769300BF56EF3BF0F15106E1F005D8B054EF3B94
:1076A300F056EF3BF05CEF3BF0000E316E010E3015
:1076B3006E60EF3BF0F0C030F0F1C031F008C13242
:1076C300F009C133F034503510D8A46BEF3BF06DA3
:1076D300EF3BF074EF3BF0F2A572EF3BF074EF3B3E
:1076E300F077EF3BF03206D8A03306000E3F6E1F53
:1076F3000E3E6E000E0101316FFCEF3BF03E06D8EB
:10770300A03F06120E3E24D96E010E3F20DA6E36DC
:10771300C001F037C002F038C003F039C004F03ABA
:10772300C005F03BC006F03CC007F03DC008F00ABE
:107733000E096E000E0A6E000E0B6E000E0C6E002C
:107743000E0D6E000E0E6E000E0F6E000E106E5AB2
:10775300EC34F001C026F002C027F003C028F00487
:10776300C029F005C02AF006C02BF007C02CF00892
:10777300C02DF026C013F028C014F011EC31F01323
:1077830050300FDF6E3006D8A031063206D8A03352
:107793000636C001F037C002F038C003F039C00428
:1077A300F03AC005F03BC006F03CC007F03DC0080E
:1077B300F00A0E096E000E0A6E000E0B6E000E0C20
:1077C3006E000E0D6E000E0E6E000E0F6E000E108C
:1077D3006E0CEC35F001C036F002C037F003C03850
:1077E300F004C039F005C03AF006C03BF007C03CD6
:1077F300F008C03DF03FBE07EF3CF03F5008E13ECC
:1078030004D8A007EF3CF009EF3CF03AEF3CF03628
:10781300503710381039103A103B103C103D10D837
:10782300A416EF3CF018EF3CF080EF3BF031BE259F
:10783300EF3CF0315006E13004D8B023EF3CF025A3
:10784300EF3CF080EF3BF033BE30EF3CF0335008B9
:10785300E13204D8A030EF3CF032EF3CF03AEF3C99
:10786300F00001F2B338EF3CF03AEF3CF080EF3B2D
:10787300F034503510D8A441EF3CF043EF3CF04BCB
:10788300EF3CF00001F2A549EF3CF04BEF3CF0690F
:10789300EF3CF03E06D8A03F0634503510D8A4552F
:1078A300EF3CF057EF3CF05DEF3CF0000E2F6E2BFA
:1078B3000E2E6E61EF3CF0000E2F6E2D0E2E6E120B
:1078C3000E3E24D96E010E3F20DA6E2EC0DFFF1C60
:1078D300C011F01DC012F0120E3E24136E010E3FB4
:1078E30020146E32C015F033C016F092EC33F01151
:1078F300C01CF012C01DF01200000E926E130E0198
:10790300015A6F880E596F21EE4AF010EEE3F0072B
:107913000EDBCFE3FFE806FCE221EE42F010EED3EC
:10792300F0070EDBCFE3FFE806FCE2849E0BEC30AE
:10793300F06BEC30F08984E3EC2FF0000E026E0A5A
:107943000E016E98EC31F0000E0001EF6F000EEEA9
:107953006F000EE26F000EE16FD890E135D96EE251
:1079630035DA6E000ED926010EDA22000EDE6E0025
:107973000EDD6EE14BE22BE2BFC9EF3CF0E25109B1
:10798300E1030EE15DD8A0C9EF3CF0CBEF3CF0AED4
:10799300EF3CF0000EED6F000EEC6FE3EC2FF09E6A
:1079A300EC39F0030E026EE80E016E98EC31F0072D
:1079B3000E0B6E890E0C6E7F0E0D6E030E4BEC33A9
:1079C300F0000E0B6E9F0E0C6E7E0E0D6E040E4BB2
:1079D300EC33F0D0EC35F00001EB6F310EEB19D83E
:1079E300A4F6EF3CF0F8EF3CF001EF3DF0320EEB84
:1079F30019D8B4FFEF3CF001EF3DF0CFEF3CF000BE
:107A03000E026E140E016E98EC31F0E3EC2FF000D1
:107A13000E0B6E960E0C6E7F0E0D6E010E4BEC333D
:107A2300F0000E0B6EDB0E0C6E7E0E0D6E020E4B17
:107A3300EC33F0000E0B6E130E0C6E7F0E0D6E0307
:107A43000E4BEC33F0000E0B6E510E0C6E7F0E0DD1
:107A53006E040E4BEC33F0D0EC35F00001EB6F31DC
:107A63000EEB19D8A438EF3DF03AEF3DF079EF3D36
:107A7300F0E4BF45EF3DF0E45108E1E305D8A0454C
:107A8300EF3DF047EF3DF071EF3DF0FF0EE325E3EF
:107A93006FFF0EE421E46FE3EC2FF0420E096E7FDB
:107AA3000E0A6E84EC32F00001EC51D325EC6FED3D
:107AB30051D421ED6F010EEE25EE6F000EEF21EF95
:107AC3006FD890EE35D96EEF35DA6EFE0ED92600FB
:107AD3000EDA22010EDE6E000EDD6E79EF3DF0E36D
:107AE300EC2FF05F0E096E7F0E0A6E84EC32F032DB
:107AF3000E0001EB19D8A481EF3DF083EF3DF0C2F6
:107B0300EF3DF0E6BF8EEF3DF0E65108E1E505D825
:107B1300A08EEF3DF090EF3DF0BAEF3DF0FF0EE5A4
:107B230025E56FFF0EE621E66FE3EC2FF0010E096A
:107B33006E7F0E0A6E84EC32F00001EC51D525EC19
:107B43006FED51D621ED6F010EEE25EE6F000EEFB6
:107B530021EF6FD890EE35D96EEF35DA6EFE0ED980
:107B630026000EDA22020EDE6E000EDD6EC2EF3D3F
:107B7300F0E3EC2FF05F0E096E7F0E0A6E84EC3299
:107B8300F0330E0001EB19D8A4CAEF3DF0CCEF3D62
:107B9300F00BEF3EF0E8BFD7EF3DF0E85108E1E727
:107BA30005D8A0D7EF3DF0D9EF3DF003EF3EF0FF4E
:107BB3000EE725E76FFF0EE821E86FE3EC2FF0EE09
:107BC3000E096E7E0E0A6E84EC32F00001EC51D782
:107BD30025EC6FED51D821ED6F010EEE25EE6F0010
:107BE3000EEF21EF6FD890EE35D96EEF35DA6EFEDA
:107BF3000ED926000EDA22030EDE6E000EDD6E0BAA
:107C0300EF3EF0E3EC2FF05F0E096E7F0E0A6E84F9
:107C1300EC32F0340E0001EB19D8A413EF3EF0154B
:107C2300EF3EF054EF3EF0EABF20EF3EF0EA51089A
:107C3300E1E905D8A020EF3EF022EF3EF04CEF3E05
:107C4300F0FF0EE925E96FFF0EEA21EA6FE3EC2F5F
:107C5300F0230E096E7F0E0A6E84EC32F00001EC05
:107C630051D925EC6FED51DA21ED6F010EEE25EEC2
:107C73006F000EEF21EF6FD890EE35D96EEF35DA46
:107C83006EFE0ED926000EDA22040EDE6E000EDD25
:107C93006E54EF3EF0E3EC2FF05F0E096E7F0E0A99
:107CA3006E84EC32F0020E026EBC0E016E98EC3163
:107CB300F0E3EC2FF07B0E096E7F0E0A6E84EC323C
:107CC300F0000E0B6E6D0E0C6E7F0E0D6E020E4BE2
:107CD300EC33F0000E0B6EC70E0C6E7F0E0D6E03B1
:107CE3000E4BEC33F0000E0B6ECC0E0C6E7F0E0DB4
:107CF3006E040E4BEC33F0D0EC35F00001EB6F006B
:107D03000E026E640E016E98EC31F02B0E0001EB47
:107D130019D8A48FEF3EF091EF3EF09FEF3EF0EFC6
:107D2300BF9DEF3EF0EF5109E1030EEE5DD8A09D3C
:107D3300EF3EF09FEF3EF007EF3DF0030E026EE8DB
:107D43000E016E98EC31F0E3EC2FF0ECC0DBF0EDBC
:107D5300C0DCF0C00E0001666F000E676FF70E689F
:107D63006F7F0E696FDBC06AF0DCC06BF02EEC3204
:107D7300F0BF0E096E7F0E0A6E84EC32F0000E0B1C
:107D83006EC00E0C6E000E0D6E020E4BEC33F00344
:107D93000E026EE80E016E98EC31F00001EC510119
:107DA30001595D5A51800A0001BD6FED51800ABD32
:107DB30059D8B0DFEF3EF0E1EF3EF016EF3FF0E3CE
:107DC300EC2FF0C80E096E7E0E0A6E84EC32F05969
:107DD300C1DDF05AC1DEF0C60E0001666F000E670A
:107DE3006FF70E686F7F0E696FDDC06AF0DEC06BE0
:107DF300F02EEC32F0000E0B6E330E0C6E7F0E0D78
:107E03006E030E4BEC33F0000E0B6EC60E0C6E00C1
:107E13000E0D6E040E4BEC33F0030E026EE80E01F2
:107E23006E98EC31F0A5EF3CF074EC31F0E3EC2FFD
:107E3300F00001EC510101595D0001DF6FED5101CB
:107E4300015A590001E06FCC0E666F000E676FF7A1
:107E53000E686F7F0E696FDFC06AF0E0C06BF02EB3
:107E6300EC32F0330E096E7F0E0A6E84EC32F000B2
:107E73000E0B6ECC0E0C6E000E0D6E020E4BEC3321
:107E8300F0000E0B6EB40E0C6E7E0E0D6E030E4BD9
:107E9300EC33F00EEF3FF000EF00F000507265732B
:107EA300696F6E6520756E61207465636C612E2E3B
:107EB300004752414349415320504F5220434F4DB5
:107EC300505241520053616C646F20696E73756642
:107ED3006963696E74652000322E476173656F7341
:107EE3006120334C202433353030005365206167E3
:107EF3007265676F20626F6D626F6E6573005365A5
:107F03002061677265676F20476173656F736100F6
:107F1300332E426F6D626F6E6573202435303000EF
:107F230053652061677265676F20506170617300EC
:107F330053752063616D62696F2065733A20005346
:107F4300652061677265676F204361666500342E43
:107F53005061706173202432303030004E6F2064E2
:107F63006973706F6E69626C65006F74726F2070F5
:107F7300726F647563746F00446573656120616E2D
:107F83006961646972002D4269656E76656E696424
:107F93006F2D00312E43616665202431303030006F
:107FA300446174653A2025782D00486F72613A2543
:107FB300783A0054696D653A25783A00544F544134
:107FC3004C203A002B2E5369003D2E4E6F0025782E
:107FD30020005765640054756500467269004D6F53
:107FE3006E0053756E005361740054687500414D03
:0D7FF30000504D002564002578003200008C
:020000040020DA
:08000000FFFFFFFFFFFFFFFF00
:020000040030CA
:0E00000000091F1EFF0181FF0FC00FE00F401F
:00000001FF
